S0110000424D534C61646465722E73726563E5
S113000019C020C01FC01EC01DC01CC01BC01AC008
S113001019C018C017C016C015C014C013C012C030
S113002011C010C00FC00EC00DC00CC00BC00AC060
S113003009C008C011241FBECFEFCDBFDFE3DEBF70
S1130040E2D056C1DDCFE0E0F6E081E5828381E0D5
S113005080830895E0EAF0E080E1808382E0818398
S11300600895E0E0F6E08081816080830895E0E017
S1130070F6E080818E7F80830895E0E0F6E0868359
S113008081E08087089580910B06817008958091A6
S11300901006909111060895F0DFF5DF8823E9F347
S11300A0F6DFE0E0F6E02385216023870895CF9210
S11300B0DF92EF92FF92CEDFC6DFD3DF8DE1ECDF7C
S11300C08DE1EADF9C0140E050E060E070E381E113
S11300D090E0D0D069017A01CADFC701B601FF9070
S11300E0EF90DF90CF900895CF93DF93EC01DFDFA3
S11300F0688379838A839B8362342EE07207810547
S1130100910568F085E691E08093280A9093290A86
S1130110E0E0FAE080818160808383E01FC06E3D6F
S11301207D408105910538F0E0E0FAE0808181604E
S1130130808382E013C0E0E0FAE080818E7F8083D8
S11301401092020A88819981AA81BB81803F9A40DA
S1130150A105B10510F081E001C080E0DF91CF91ED
S1130160089584E08093100488E48093000480E47C
S113017080930504089580E094E08093260A909388
S1130180270A80E890E08093280A9093290A83E163
S11301908093010A8CE08093000A1092020A089569
S11301A085E0809350008895089581E08093500005
S11301B0889508958091400083FF05C084E0809372
S11301C0010481E0089580E0089518C0A89580E4B2
S11301D080930604EFE1F3E03197F1F700C00000EB
S11301E080930504992349F0FFEF21EE34E0F150A8
S11301F020403040E1F700C00000892F9FEF980FA6
S11302008111E4CF0895CF93DF9300D000D0CDB710
S1130210DEB7A895A6DFAFDFCDDF811104C080E48F
S113022080930604FFCFCE0101965EDF823069F031
S1130230833019F08130A9F40FC084E08093050461
S113024080E480930604B1DF0CC084E0809305044D
S113025082E0BBDFAADF05C084E08093060481E06E
S1130260B4DF9EDF80E090E02496CDBFDEBFDF9157
S1130270CF910895052E97FB16F400940FD057FDE7
S113028005D014D007FC02D046F408C05095409520
S1130290309521953F4F4F4F5F4F0895909580952E
S11302A0709561957F4F8F4F9F4F0895A1E21A2E4D
S11302B0AA1BBB1BFD010DC0AA1FBB1FEE1FFF1F06
S11302C0A217B307E407F50720F0A21BB30BE40B56
S11302D0F50B661F771F881F991F1A9469F760959D
S11302E07095809590959B01AC01BD01CF01089557
S10702F0F894FFCFAC
S9030000FC
